:020000040800F2
:10800000005000200D81000805810008158100083E
:108010000000000000000000000000000000000060
:1080200000000000000000000000000007810008C0
:108030000000000000000000098100080B8100081A
:108040003D8100083F81000841810008438100080C
:108050004581000847810008498100084B810008DC
:108060004D8100084F8100085181000853810008AC
:108070005581000857810008598100085B8100087C
:108080005D8100085F81000861810008638100084C
:108090006581000867810008698100086B8100081C
:1080A0006D8100086F8100087181000873810008EC
:1080B0007581000877810008798100087B810008BC
:1080C0007D8100087F81000881810008838100088C
:1080D0008581000887810008898100088B8100085C
:1080E0008D8100088F81000891810008958100082A
:1080F0009581000895810008958100089581000808
:04810000938100085F
:10810400FEE7FEE7FEE7FEE700F0CEFA00F042F8F5
:1081140008490A68002AFED41EF0040F0CBFEFF3CE
:108124000880EFF3098042F000420A60816902315D
:10813400816170472CED00E0FEE7FEE7FEE7FEE715
:10814400FEE7FEE7FEE7FEE7FEE7FEE7FEE7FEE703
:10815400FEE7FEE7FEE7FEE7FEE7FEE7FEE7FEE7F3
:10816400FEE7FEE7FEE7FEE7FEE7FEE7FEE7FEE7E3
:10817400FEE7FEE7FEE7FEE7FEE7FEE7FEE7FEE7D3
:10818400FEE7FEE7FEE7FEE7FEE7FEE7FEE7FEE7C3
:10819400FEE7000039493A480A1A02D007229143FF
:1081A4008D46384938480A1A06D00722914381F38C
:1081B4000988022282F3148834483549354A00F08C
:1081C4003FF835483549364A00F03AF835483649DB
:1081D400364A00F035F836483649374A00F030F868
:1081E40036483749374A00F02BF837483749384A78
:1081F40000F026F837483849384A00F021F8384862
:108204003849002200F034F837483849002200F099
:108214002FF837483749091A00F042FC2548264907
:10822400884205D00268043003B4904703BCF7E7E2
:1082340000208646EC46002000212F4A9047FEE7A6
:10824400884214D0521A12D003460B43134303241A
:10825400234206D1036804300B600431043AF9D197
:108264007047037801300B700131013AF9D170473E
:10827400884202D002700130FAE7704700500020B3
:10828400004800200050002000500020BC8A000854
:108294000000002004000020008300080083000880
:1082A400BC8A0008BC8A00080000002000000020EE
:1082B400BC8A0008BC8A0008BC8A0008BC8A000882
:1082C400BC8A0008BC8A0008BC8A0008BC8A000872
:1082D400BC8A0008C08A000810000020100000209A
:1082E40004000020100000201000002010000020D6
:0C82F4001000002010080020098600087F
:1083000088B003900291019200930023069300230A
:108310000593029B03F00F030693029B03F01003E7
:10832000002B03D0069A019B134306930023ADF85C
:108330001E3040E0BDF81E3001229A40009B1340E1
:10834000002B33D0039B1B680593BDF81E309B00A8
:108350000F2202FA03F3DB43059A13400593BDF89D
:108360001E309B00069A02FA03F3059A1343059305
:10837000029B282B0AD1BDF81E3001229A40039B94
:1083800014331946009B13400B600CE0029B482BF2
:1083900009D1BDF81E3001229A40039B10331946C3
:1083A000009B13400B60039B059A1A60BDF81E30BA
:1083B0000133ADF81E30BDF81E30072BBAD90823A3
:1083C000ADF81E3045E0BDF81E3001229A40009BFA
:1083D0001340002B38D0039B04331B680593BDF872
:1083E0001E30083B9B000F2202FA03F3DB43059A81
:1083F00013400593BDF81E30083B9B00069A02FA15
:1084000003F3059A13430593029B282B0AD1BDF869
:108410001E3001229A40039B14331946009B1340DF
:108420000B600CE0029B482B09D1BDF81E300122E5
:108430009A40039B10331946009B13400B60039B2B
:1084400004331A46059B1360BDF81E300133ADF8A6
:108450001E30BDF81E300F2BB5D900BF00BF08B0CD
:10846000704782B001900091019B14331A46009B23
:10847000136000BF02B0704784B0039002911346AE
:108480008DF807309DF80730002B05D0039B103383
:108490001A46029B136004E0039B14331A46029BA6
:1084A000136000BF04B0704782B001900091009B40
:1084B00023F0604323F07F030449019A13438B6048
:1084C000BFF34F8F00BF00BF02B0704700ED00E068
:1084D00082B00190019B042B06D1084B1B68074A10
:1084E00043F00403136005E0044B1B68034A23F0C8
:1084F0000403136000BF02B0704700BF10E000E04B
:1085000082B00346ADF80630BDF806309B099BB239
:1085100003F1804303F504331968BDF8063003F016
:108520001F0301229A40BDF806309B099BB203F15C
:10853000804303F50433184641EA0203036000BF99
:1085400002B0704708B56FF00400FFF7C1FF0D4B94
:108550001B68184600F092FA03460B49184600F0D3
:1085600017FA03461A46094B1A60084B1B6808495C
:10857000184600F0ABF903461A46064B1A6000BFD6
:1085800008BD00BF000000200024F44A04000020C1
:1085900000007A440800002010B584B001900198D2
:1085A00000F06CFA0246164B1B681946104600F0A4
:1085B0008DF90346134C184600F050FA03466360E9
:1085C000104B00229A600F4B01221A600D4B1B6862
:1085D0000393039B03F00103002B04D0039B03F4DC
:1085E0008033002BF2D0074B1B68064A23F00103AF
:1085F0001360044B00229A6000BF04B010BD00BF9E
:108600000800002010E000E000B583B040F20460F4
:10861000FFF776FF40F21C70FFF772FFFFF792FF43
:108620004FF40063012210211248FFF769FE4FF456
:108630008053012210210F48FFF762FE4FF4805152
:108640000C48FFF70EFF00238DF807309DF8073028
:108650005A1C8DF8072003F00103DBB21A464FF4D1
:1086600080510448FFF708FF4FF4FA70FFF794FFBA
:10867000ECE700BF0010014008B500F0B1F800BF02
:1086800008BD84B001900023039302E0039B0133F3
:108690000393019A13469B0013445B001A46039B05
:1086A0009A42F3D800BF00BF04B0704700B583B052
:1086B000474B1B68464A43F00103136000BF444B1D
:1086C0001B6803F00203002BF9D0424B1B6803F038
:1086D0000C03082B36D10023019302E0019B0133E8
:1086E0000193019B4F2BF9D93A4B1B680093009BD8
:1086F00023F0F0030093009B43F080030093354A7E
:10870000009B13600023019302E0019B013301935E
:10871000019B4F2BF9D92F4B1B680093009B23F033
:10872000F0030093009B43F090030093294A009BC1
:1087300013600023019302E0019B01330193019B2D
:108740004F2BF9D9234B1B68224A23F003031360F4
:108750006420FFF796FF1E4B1B681D4A23F08473AD
:1087600023F4803313601B4B1A681A491A4B1340C9
:108770000B60174B1B68164A23F0847323F4803375
:108780001360134B1B68124A23F480231360114BB0
:108790001B68104A23F00F6323F4702313600C4B03
:1087A0001B680B4A23F0847323F4803313600B4B54
:1087B0004FF41F021A60FFF75FFF4FF400414FF0C4
:1087C0000060FFF771FE00BF03B05DF804FB00BF5F
:1087D00000100240041002400C00FFE808100240A4
:1087E00084B00023039300230293364B1B68354A61
:1087F00043F480331360039B01330393314B1B68B5
:1088000003F400330293029B002B04D1039B4FF629
:10881000FF729342EFD12B4B1B6803F40033002B04
:1088200000D1FEE7284B284A1B681360264B264AD6
:108830001B681360244B1B68234A43F48063136056
:10884000214B1B68204A23F4403313601E4B1B68E6
:108850001D4A43F4403313601B4B1B681A4A23F034
:10886000036323F440231360174B1B68164A43F03D
:10887000016343F440231360124B1B68114A43F019
:108880008073136000BF0F4B1B6803F00073002B55
:10889000F9D00D4B1B680193019B23F00303019357
:1088A000019B43F002030193074A019B136000BF41
:1088B000054B1B6803F00C03082BF9D100BF00BF68
:1088C00004B0704700100240041002404FF0FF0C4B
:1088D0001CEAD0521EBF1CEAD153FF2AFF2B28D01E
:1088E0001A444FF0004C90EA010313EA0C034CEADF
:1088F00001214CEA0020A0FB01C1B1F1004F62F15F
:108900007F0238BF49004CEA416CFE2A09D253EA83
:1089100011204CEAC07C28BFBCF1010340EBC250DF
:108920007047124244BF18467047FF2043EAC050C8
:10893000704710EACC5F08BF00F0004011EACC5F3E
:1089400008BF01F000410CEAD153FF2A18BFFF2BEA
:1089500003D0484000F00040704700281EBFB0F12F
:10896000004F0029B1F1004F0DD0FF2A01D1420282
:1089700009D1FF2B01D14A0205D148405FF0FF41E8
:1089800061F31E00704740F20000C7F6C0707047E8
:10899000FF2313EAD0521EBF13EAD153FF2AFF2B45
:1089A00035D0D21A7F3281EA000C0CF0004C4FF027
:1089B000004343EA002043EA012130B4431A3CBF9C
:1089C00001EB4303013A090AB3FBF1F505FB11334F
:1089D0001B02B3FBF1F001FB103300EB05201B027F
:1089E000B3FBF1F505EB00205CEA500050EBC25000
:1089F00030BC002A08DDFF2A38BF70474FF0FF4027
:108A00001CF00041084370470CF00040704703EA37
:108A1000D153FF2B07D1FF2A14D05FEA412C0DD090
:108A20004FF4400016E0FF2A04D14300B3F17F4F1A
:108A30000BD007E01A4305D0002B06D0484000F0C9
:108A4000004070474FF4400004E0484000F0004010
:108A500040F4000040F0FE40704700BFC10DD1F16E
:108A60009E0105DB000240F0004020FA01F0704753
:108A70004000404038BF0138704700BFB0FA80F175
:108A800010FA01F30DD0D1F19D01C90501EB1320BE
:108A90005B0638BF704700F1010018BF704720F037
:108AA00001007047082938BF704740F20C02C2F23B
:0C8AB000000210600022C0E900217047A5
:048ABC0000D8B80521
:040000050800810D61
:00000001FF
